:100000000C9435000C945D000C945D000C945D0024
:100010000C945D000C945D000C945D000C945D00EC
:100020000C945D000C945D000C945D000C945D00DC
:100030000C945D000C945D000C945D000C945D00CC
:100040000C9430010C945D000C9462030C949403A6
:100050000C945D000C945D000C945D000C945D00AC
:100060000C945D000C945D00C40311241FBECFEFFF
:10007000D8E0DEBFCDBF11E0A0E0B1E0E8EBF0E1F9
:1000800002C005900D92A632B107D9F724E0A6E28E
:10009000B1E001C01D92A83FB207E1F710E0CAE647
:1000A000D0E004C02297FE010E945608C836D1074E
:1000B000C9F70E9408040C945A080C94000026E02A
:1000C00040E855E260E070E08BE594E00C940003BA
:1000D000AF92BF92CF92DF92EF92FF920F931F9356
:1000E000CF93DF9310922E0110922F0110923001C6
:1000F00010923101C6E3D1E08EE00E940002BC0103
:10010000882777FD8095982F0E94170760934E04EB
:1001100070934F04809350049093510420E030E09A
:1001200040EA50E40E94CB0720E030E040E85AE388
:100130000E94CB07699379938993999384E0C235A0
:10014000D807D1F6A0902E01B0902F010091300178
:1001500010913101C2E3D1E0C990D990E990F990B2
:100160009501A801C701B6010E94C707181614F42B
:100170005601870184E0C235D80771F7C501D8015F
:1001800080932E0190932F01A0933001B093310101
:1001900061E071E08BE594E00E94550440912E01EE
:1001A00050912F01609130017091310122E030E0D7
:1001B0008BE594E00E94000620E030E040E250E44D
:1001C00060912E0170912F01809130019091310149
:1001D0000E94130660932A0170932B0180932C01D7
:1001E00090932D0120E030E040E251E40E94CB07E3
:1001F00020E030E040E05FE30E94CB0721E834E0FC
:1002000045E35FE30E94CB076093260170932701CB
:10021000809328019093290164E071E08BE594E0DC
:100220000E945504409126015091270160912801B8
:100230007091290122E030E08BE594E00E940006F5
:1002400064E670E080E090E0DF91CF911F910F9124
:10025000FF90EF90DF90CF90BF90AF900C949D01F6
:100260001F920F920FB60F9211242F933F938F93EB
:100270009F93AF93BF938091530490915404A091A6
:100280005504B09156043091520423E0230F2D37CA
:1002900020F40196A11DB11D05C026E8230F02968A
:1002A000A11DB11D209352048093530490935404D4
:1002B000A0935504B093560480915704909158042C
:1002C000A0915904B0915A040196A11DB11D8093CB
:1002D000570490935804A0935904B0935A04BF91C3
:1002E000AF919F918F913F912F910F900FBE0F90E3
:1002F0001F9018953FB7F894809157049091580437
:10030000A0915904B0915A0426B5A89B05C02F3F6F
:1003100019F00196A11DB11D3FBF6627782F892FC7
:100320009A2F620F711D811D911D42E0660F771F8C
:10033000881F991F4A95D1F70895CF92DF92EF92C7
:10034000FF92CF93DF936B017C010E947A01EB0156
:10035000C114D104E104F10489F00E9412060E9444
:100360007A016C1B7D0B683E734090F381E0C81AE4
:10037000D108E108F108C851DC4FEACFDF91CF91F5
:10038000FF90EF90DF90CF900895789484B58260CD
:1003900084BD84B5816084BD85B5826085BD85B529
:1003A000816085BDEEE6F0E0808181608083E1E8D8
:1003B000F0E0108280818260808380818160808310
:1003C000E0E8F0E0808181608083E1EBF0E0808113
:1003D00084608083E0EBF0E0808181608083EAE7E5
:1003E000F0E080818460808380818260808380816E
:1003F000816080838081806880831092C10008952D
:100400008E3008F08E5087702091000190E4299F73
:1004100090011124822B80937C0080917A0080646B
:1004200080937A0080917A0086FDFCCF80917800DD
:100430002091790090E0922B0895FC01818D228D0E
:1004400090E0805C9F4F821B91098F7399270895DC
:10045000FC01918D828D981731F0828DE80FF11D8E
:10046000858D90E008958FEF9FEF0895FC01918DA9
:10047000828D981761F0828DDF01A80FB11D5D9606
:100480008C91928D9F5F9F73928F90E008958FEF74
:100490009FEF08958AEB93E0892B49F080E090E08C
:1004A000892B29F00E94BA0381110C940000089551
:1004B000FC01848DDF01A80FB11DA35ABF4F2C9101
:1004C000848D90E001968F739927848FA689B789D0
:1004D0002C93A089B1898C9180648C93938D848DA9
:1004E000981306C00288F389E02D80818F7D808378
:1004F0000895CF93DF93EC01888D8823C9F0EA89B2
:10050000FB89808185FD05C0A889B9898C9186FD0C
:100510000FC00FB607FCF5CF808185FFF2CFA88909
:10052000B9898C9185FFEDCFCE010E945802E7CFAB
:10053000DF91CF910895CF92DF92FF920F931F9397
:10054000CF93DF931F92CDB7DEB76C01DC015B96D2
:100550009C915B975C968C915C97981307C0509622
:10056000ED91FC915197808185FD32C0F601038D9C
:1005700010E00F5F1F4F0F731127F02EF601848DCF
:10058000F81211C00FB607FCF9CFD6015096ED91C5
:10059000FC915197808185FFF1CFC60169830E944C
:1005A00058026981EBCF838DE80FF11DE35AFF4FAD
:1005B0006083D6015B960C935B975296ED91FC910C
:1005C000539780818062808381E058968C930DC020
:1005D000D6015696ED91FC91579760835096ED9118
:1005E000FC91519780818064808381E090E00F903E
:1005F000DF91CF911F910F91FF90DF90CF900895E1
:10060000BF92CF92DF92EF92FF92CF93DF93EC01F4
:100610006A017B01B22EE889F98982E08083411565
:1006200081EE580761057105A1F060E079E08DE386
:1006300090E0A70196010E9432082150310941093A
:1006400051095695479537952795211580E138072B
:1006500098F0E889F989108260E874E88EE190E00A
:10066000A70196010E943208215031094109510920
:100670005695479537952795EC85FD853083EE8512
:10068000FF852083188EEC89FD89B082EA89FB8979
:10069000808180618083EA89FB8980818860808392
:1006A000EA89FB89808180688083EA89FB8980816F
:1006B0008F7D8083DF91CF91FF90EF90DF90CF907F
:1006C000BF9008951F920F920FB60F9211242F938F
:1006D0008F939F93EF93FF93E0916B04F0916C04E1
:1006E0008081E0917104F091720482FD12C09081CA
:1006F000809174048F5F8F7320917504821751F07D
:10070000E0917404F0E0E55AFB4F958F80937404F8
:1007100001C08081FF91EF919F918F912F910F9058
:100720000FBE0F901F9018951F920F920FB60F9249
:1007300011242F933F934F935F936F937F938F93E6
:100740009F93AF93BF93EF93FF938BE594E00E9449
:100750005802FF91EF91BF91AF919F918F917F913F
:100760006F915F914F913F912F910F900FBE0F901E
:100770001F9018958BE594E00E941D0221E0892BC3
:1007800009F420E0822F089510925E0410925D0417
:1007900088EE93E0A0E0B0E080935F049093600463
:1007A000A0936104B09362048BE091E090935C04A9
:1007B00080935B0485EC90E09093680480936704D9
:1007C00084EC90E090936A048093690480EC90E05C
:1007D00090936C0480936B0481EC90E090936E0492
:1007E00080936D0482EC90E09093700480936F048A
:1007F00086EC90E0909372048093710410927404DC
:10080000109275041092760410927704089508955A
:100810000E94C5010E9407040E945F00CAE4D2E062
:100820000E9468002097E1F30E944A02F9CFCF921C
:10083000DF92EF92FF920F931F93CF93DF936C01A0
:100840007A01EB01E60EF71E00E010E0CE15DF05A1
:1008500061F06991D601ED91FC910190F081E02D5C
:10086000C6010995080F191FF1CFC801DF91CF917B
:100870001F910F91FF90EF90DF90CF900895611539
:10088000710581F0DB010D900020E9F7AD014150C9
:100890005109461B570BDC01ED91FC910280F3815D
:1008A000E02D099480E090E008950C943F04DC0171
:1008B000ED91FC910190F081E02D09940F931F932D
:1008C000CF93DF93EC016DE00E9457048C016AE046
:1008D000CE010E945704800F911FDF91CF911F918D
:1008E0000F9108958F929F92AF92BF92CF92DF9215
:1008F000EF92FF920F931F93CF93DF93CDB7DEB7A5
:10090000A1970FB6F894DEBF0FBECDBF7C01C42EF9
:10091000E52FCB01D22E19A221E02D1510F02AE0EF
:10092000D22E8E010F5D1F4F8D2C912CA12CB12C3E
:100930006C2D7E2FA50194010E9432088C2DD29E31
:1009400080191124015011098A3014F4805D01C00E
:10095000895CF8018083211531054105510521F09D
:10096000C22EE32FCA01E4CFB801C7010E943F04A1
:10097000A1960FB6F894DEBF0FBECDBFDF91CF9129
:100980001F910F91FF90EF90DF90CF90BF90AF90AD
:100990009F908F900895CF92DF92EF92FF920F93E6
:1009A0001F93CF93DF93EC016A017B012115310581
:1009B00079F4E881F9810190F081E02D642FDF91D5
:1009C000CF911F910F91FF90EF90DF90CF900994FE
:1009D0002A303105E9F477FF1AC06DE20E9457040E
:1009E0008C0144275527BA014C195D096E097F090E
:1009F0002AE0CE010E947204800F911FDF91CF91F7
:100A00001F910F91FF90EF90DF90CF9008952AE013
:100A1000B701A601CE01DF91CF911F910F91FF90F9
:100A2000EF90DF90CF900C9472044F925F926F9290
:100A30007F928F929F92AF92BF92CF92DF92EF926E
:100A4000FF920F931F93CF93DF93EC016A017B0119
:100A5000B22E9A01AB01C701B6010E942E0888236D
:100A600019F067E171E027C026013701E89477F8B3
:100A70002FEF3FEF4FE75FE7C301B2010E942E085F
:100A800081110DC02FEF3FEF4FE75FE7C301B201C8
:100A90000E94780618161CF46BE171E00CC02FEF71
:100AA0003FEF4FE75FE4C701B6010E94C707181682
:100AB000ACF46FE171E0CE01DF91CF911F910F9106
:100AC000FF90EF90DF90CF90BF90AF909F908F906E
:100AD0007F906F905F904F900C943F042FEF3FEF0B
:100AE0004FE75FECC701B6010E94780687FDE1CFB2
:100AF00020E030E0A901C701B6010E94780687FF17
:100B00000AC06DE2CE010E9457048C01F7FAF094FE
:100B1000F7F8F09402C000E010E0A12C60E070E073
:100B200080E09FE3AB1441F020E030E040E251E48C
:100B30000E947C06A394F6CF9B01AC01C701B601CD
:100B40000E9414066B017C010E94E9062B013C0106
:100B50000E9415079B01AC01C701B6010E94130654
:100B60006B017C012AE0B301A201CE010E94720454
:100B7000080F191FBB2039F063E271E0CE010E941B
:100B80003F04080F191F7B2C772041F120E030E053
:100B900040E251E4C701B6010E94CB076B017C0122
:100BA0000E94E4064B01AA2497FCA094BA2C2AE0E8
:100BB00030E0B501A401CE010E94CB04080F191F3B
:100BC000C501B4010E9417079B01AC01C701B60122
:100BD0000E9413066B017C017A94D6CFC801DF9185
:100BE000CF911F910F91FF90EF90DF90CF90BF902A
:100BF000AF909F908F907F906F905F904F900895EF
:100C00000F931F93CF93DF93EC010E9415058C0186
:100C1000CE010E945E04800F911FDF91CF911F9142
:100C20000F91089508955058BB27AA270ED075C17B
:100C300066D130F06BD120F031F49F3F11F41EF4F7
:100C40005BC10EF4E095E7FB51C1E92F77D180F34A
:100C5000BA17620773078407950718F071F49EF5B9
:100C60008FC10EF4E0950B2EBA2FA02D0B01B90108
:100C700090010C01CA01A0011124FF27591B99F012
:100C8000593F50F4503E68F11A16F040A22F232F1E
:100C9000342F4427585FF3CF469537952795A7956E
:100CA000F0405395C9F77EF41F16BA0B620B730B15
:100CB000840BBAF09150A1F0FF0FBB1F661F771F86
:100CC000881FC2F70EC0BA0F621F731F841F48F43B
:100CD000879577956795B795F7959E3F08F0B3CFC1
:100CE0009395880F08F09927EE0F979587950895AB
:100CF000D9D008F481E008950CD00FC107D140F09D
:100D0000FED030F021F45F3F19F0F0C0511139C12D
:100D1000F3C014D198F39923C9F35523B1F3951B6C
:100D2000550BBB27AA2762177307840738F09F5F0C
:100D30005F4F220F331F441FAA1FA9F333D00E2E7B
:100D40003AF0E0E830D091505040E695001CCAF7E8
:100D500029D0FE2F27D0660F771F881FBB1F2617AD
:100D600037074807AB07B0E809F0BB0B802DBF0180
:100D7000FF2793585F4F2AF09E3F510568F0B6C099
:100D800000C15F3FECF3983EDCF38695779567955D
:100D9000B795F7959F5FC9F7880F911D9695879531
:100DA00097F90895E1E0660F771F881FBB1F621750
:100DB00073078407BA0720F0621B730B840BBA0B0E
:100DC000EE1F88F7E095089504D06894B111D9C05A
:100DD0000895BCD088F09F5790F0B92F9927B7514C
:100DE000A0F0D1F0660F771F881F991F1AF0BA95EF
:100DF000C9F712C0B13081F0C3D0B1E00895C0C0CE
:100E0000672F782F8827B85F39F0B93FCCF38695E4
:100E100077956795B395D9F73EF490958095709541
:100E200061957F4F8F4F9F4F0895E89409C097FBBE
:100E30003EF490958095709561957F4F8F4F9F4FB1
:100E40009923A9F0F92F96E9BB279395F6958795F5
:100E500077956795B795F111F8CFFAF4BB0F11F4B8
:100E600060FF1BC06F5F7F4F8F4F9F4F16C088235F
:100E700011F096E911C0772321F09EE8872F762F95
:100E800005C0662371F096E8862F70E060E02AF0D6
:100E90009A95660F771F881FDAF7880F96958795C2
:100EA00097F90895990F0008550FAA0BE0E8FEEF97
:100EB00016161706E807F907C0F012161306E4071E
:100EC000F50798F0621B730B840B950B39F40A2617
:100ED00061F0232B242B252B21F408950A2609F4F5
:100EE000A140A6958FEF811D811D089597F99F67F9
:100EF00080E870E060E008959FEF80EC08950024A2
:100F00000A941616170618060906089500240A946E
:100F100012161306140605060895092E0394000CF4
:100F200011F4882352F0BB0F40F4BF2B11F460FF83
:100F300004C06F5F7F4F8F4F9F4F089557FD9058AC
:100F4000440F551F59F05F3F71F04795880F97FB8D
:100F5000991F61F09F3F79F0879508951216130647
:100F60001406551FF2CF4695F1DF08C01616170676
:100F70001806991FF1CF86957105610508940895AB
:100F8000E894BB2766277727CB0197F908958ADF76
:100F900008F48FEF08950BD0C0CFB1DF28F0B6DF93
:100FA00018F0952309F0A2CFA7CF1124EACFC6DF0E
:100FB000A0F3959FD1F3950F50E0551F629FF0016C
:100FC000729FBB27F00DB11D639FAA27F00DB11DC5
:100FD000AA1F649F6627B00DA11D661F829F22274E
:100FE000B00DA11D621F739FB00DA11D621F839FD5
:100FF000A00D611D221F749F3327A00D611D231FAB
:10100000849F600D211D822F762F6A2F11249F57F8
:1010100050408AF0E1F088234AF0EE0FFF1FBB1F1B
:10102000661F771F881F91505040A9F79E3F5105BA
:1010300070F05CCFA6CF5F3FECF3983EDCF3869573
:1010400077956795B795F795E7959F5FC1F7FE2B65
:10105000880F911D9695879597F9089523DF880B42
:10106000990B0895A1E21A2EAA1BBB1BFD010DC00E
:10107000AA1FBB1FEE1FFF1FA217B307E407F50748
:1010800020F0A21BB30BE40BF50B661F771F881F24
:10109000991F1A9469F760957095809590959B01BA
:1010A000AC01BD01CF010895EE0FFF1F0590F49133
:0810B000E02D0994F894FFCF34
:1010B80001763D00493D00000000009B0217041D19
:1010C800023602280279026E616E00696E66006F50
:0610D8007666002E000008
:00000001FF
